:10000000803102288731E52F8C31012480317B300B
:10001000F0000030F1008B31D423803186312D2661
:1000200080318031152080310E2800302000A00062
:100030000030A1000030A200210032082000A300FF
:10004000210033082000A400210034082000A5006E
:100050008D3132258031031C31284F288331A5236F
:100060008031210035082000A00021003608200042
:10007000A100210037082000A2002100380820003C
:10008000A300210039082000A40021003A08200024
:10009000A5008D3132258031031808002E2821005B
:1000A00032082000A000210033082000A100210018
:1000B00034082000A2000030A3000030A40000306B
:1000C000A5008D3132258031031808002100380841
:1000D0002000A000210039082000A10021003A08DA
:1000E0002000A200210035082000A30021003608CE
:1000F0002000A400210037082000A5008D31322502
:100100008031031808008331A52380316628200040
:100110004A08CD004B08CE004C08CF0003104E0D0E
:100120004F0DD0005008D5005508031D9E28003003
:10013000C7000030C8000030C90008004708CD00E3
:100140004808CE004908CF0003104E0D4F0DD000D7
:100150005008D6005608031DB4280030C7000030F0
:10016000C8000030C90008000030D2000030D300C1
:100170000030D40089305607CD004D08D5024A081A
:10018000CD004B08CE004C08CF001030CF36CE0C3F
:10019000CD0C890BC6284D08D0005008D600470862
:1001A000CD004808CE004908CF001030CF36CE0C25
:1001B000CD0C890BD6284D08D0005008D6068030CB
:1001C000CD004D08D605CB17FF30CA05FF30CB0553
:1001D0000030CC05C817FF30C705FF30C805003018
:1001E000C9051830CD004D08D1000130D235D30DEE
:1001F000D40D890BF62849084C02031D052948082F
:100200004B02031D052947084A02031C0E29470813
:10021000CA024808CB3B4908CC3B52140130CA35CE
:10022000CB0DCC0D890B0F290130D102031DF52810
:100230005208F0005308F1005408F2005508CD00B0
:100240004D08F3005608CE004E08F4008E3191267A
:1002500070082000C7007108C8007208C9000800B3
:1002600020002008A6002108A7002208A8000310EB
:10027000270D280DA9002908AA002A08031D4729CF
:100280000030A0000030A1000030A20008002308C8
:10029000A6002408A7002508A8000310270D280D94
:1002A000A9002908AF002F08031D5D290030A00018
:1002B0000030A1000030A20008002F087B3EA600FD
:1002C0002608AA072008A6002108A7002208A800DF
:1002D0001030A836A70CA60C890B69292608A9009E
:1002E0002908AF002308A6002408A7002508A800B5
:1002F0001030A836A70CA60C890B79292608A9006E
:100300002908AF068030A6002608AF05A117A4175C
:10031000FF30A305FF30A4050030A5050030AB0079
:100320000030AC000030AD000730A6002608AE005B
:10033000201CA0292308AB072408AC3D2508AD3DAF
:100340000130A236A10CA00C890BA1290130A335E4
:10035000A40DA50D890BA7290130AE02031D982914
:100360000930A6002608AE00201CBC292308AB07D4
:100370002408AC3D2508AD3D0130A236A10CA00CEF
:10038000890BBD290130AD36AC0CAB0C890BC329F0
:100390000130AE02031DB4292B08F0002C08F10037
:1003A0002D08F2002A08A6002608F3002F08A7004F
:1003B0002708F4008E31912670082000A0007108F3
:1003C000A1007208A200080020006B08A0006C08C1
:1003D000A1006D08A2000030A3000030A40000308E
:1003E000A5008D31322581310318FD290030200010
:1003F000EB000030EC000030152AC0302000A000D7
:100400007F30A1004430A2006B08A3006C08A40058
:100410006D08A5008D31322581310318162AC030B0
:100420002000EB007F30EC004430ED0021003E085E
:10043000F9003D08F8008B31EE2381317808200067
:10044000A3007908A4007A08A500F630A00048307F
:10045000A1004030A20081313021813120002008EC
:10046000CA002108CB002208CC000030C700C830E9
:10047000C8004230C9008031872081312000470800
:100480002100C300200048082100C40020004908C2
:100490002100C50043082000DD00210044082000A1
:1004A000DE00210045082000DF008431D6248131A0
:1004B00020005D082100C60020005E082100C70062
:1004C00020005F082100C80046082000A30021008A
:1004D00047082000A400210048082000A5006B0860
:1004E000A0006C08A1006D08A2008131302181318B
:1004F000200020082100C900200021082100CA0096
:10050000200022082100CB0049082000A300210080
:100510004A082000A40021004B082000A500F63066
:10052000A0002830A1003F30A2008131302181316C
:1005300020002008D7002108D8002208D9006B0825
:10054000DA006C08DB006D08DC008C314E242000E2
:100550005708EB005808EC005908ED00080020008F
:100560003008B6003108B7003208B8000310370D64
:10057000380DB9003908BC003308B6003408B7009C
:100580003508B8000310370D380DB9003908BB0025
:100590003C080319D72A3B083C020318DE2A3C0317
:1005A000FF3A3B07B60019303602031CDE2A330837
:1005B000B0003408B1003508B20008003B08031948
:1005C00008003C083B020318ED2A3B03FF3A3C07B6
:1005D000B60019303602031808000630B600360897
:1005E000BA00B21BBA17B51B3A17B117FF30B005E6
:1005F000FF30B1050030B205B417FF30B305FF304E
:10060000B4050030B5053B083C020318292B013026
:10061000B335B40DB50D890B082B0130BB023B0877
:100620003C060319242B0130BA023A080739031992
:10063000242B072B0130B236B10CB00C890B1B2BCD
:100640000130B6003608BC073C083B0603194E2BA8
:100650001A2B3C083B0203184E2B0130B035B10D6C
:10066000B20D890B2E2B0130BC023B083C0603194E
:100670004A2B0130BA023A08073903194A2B2D2BAD
:100680000130B536B40CB30C890B412B0130B600E8
:100690003608BB073C083B06031D402BBA1F602BE6
:1006A000FF30B006FF30B106FF30B2060130B007B0
:1006B000003003180130B107003003180130B207D1
:1006C0003A1F722BFF30B306FF30B406FF30B50679
:1006D0000130B307003003180130B40700300318AD
:1006E0000130B507BA013008B3073108B43D32080C
:1006F000B53DB51F8D2BFF30B306FF30B406FF307C
:10070000B5060130B307003003180130B4070030DC
:1007100003180130B507BA01BA0A3308F0003408EB
:10072000F1003508F2003C08B6003608F3003A083C
:10073000B7003708F4008E31912670082000B00011
:100740007108B1007208B2000800210032082000D0
:10075000B000210033082000B1002100340820003F
:10076000B200210035082000B30021003608200027
:10077000B400210037082000B5008231AF22833158
:10078000200030082100B500200031082100B6000B
:10079000200032082100B70029082000B000210005
:1007A0002A082000B10021002B082000B2002100FF
:1007B0002C082000B30021002D082000B4002100E7
:1007C0002E082000B5008231AF228331200030088E
:1007D0002100AC00200031082100AD0020003208CB
:1007E0002100AE0020082000B000210021082000D8
:1007F000B100210022082000B200210023082000BF
:10080000B300210024082000B400210025082000A6
:10081000B5008231AF228331200030082100A300CF
:10082000200031082100A400200032082100A5008A
:1008300035082000EB00210036082000EC002100E4
:1008400037082000ED008131E421833120006B085E
:100850002100CF0020006C082100D00020006D088E
:100860002100D1004F08F0005008F1005108F200BB
:100870008F317A27833171082000EF007008EE0075
:100880008C316C24833121002C082000EB002100E6
:100890002D082000EC0021002E082000ED00813101
:1008A000E421833120006B082100CF0020006C0878
:1008B0002100D00020006D082100D1004F08F00079
:1008C0005008F1005108F2008F317A278331710806
:1008D0002000EF007008EE008C318C248331210061
:1008E00023082000EB00210024082000EC00210058
:1008F00025082000ED008131E421833120006B08C0
:100900002100CF0020006C082100D00020006D08DD
:100910002100D1004F08F0005008F1005108F2000A
:100920008F317A27833171082000EF007008EE00C4
:100930008C313124833134302100CE00F130890BE9
:100940009F2CCE0B9F2C003201302100BF070030BE
:10095000C03D80302000A0008930A1004430A200BA
:1009600021004008F9003F08F8008B31EE23833165
:1009700078082000A3007908A4007A08A5008D312A
:10098000322583310318C72C86312D26833101305F
:100990002100BD070030BE3D00303E026530031926
:1009A0003D02031C0800BD01BE0108002000EA0151
:1009B0005D08A0005E08A1005F08A2000030A3004F
:1009C0000030A4000030A5008D3132258431031899
:1009D000FC2C20005D08F0005E08F1005F08F200CA
:1009E0008B31BC23843170082000DD007108DE00EB
:1009F0007208DF00EA01EA0AFA302000A000223083
:100A0000A1003E30A2005D08A3005E08A4005F08BC
:100A1000A50081313021843120002008DD0021082B
:100A2000DE002208DF005D08BD005E08BE005F0832
:100A3000BF008E31F526843120003D08D7003E08E6
:100A4000D8003F08D9005D08DA005E08DB005F08C7
:100A5000DC008C314E24843120005708DD0058081A
:100A6000DE005908DF000030A0008030A1004030D7
:100A7000A2005D08A3005E08A4005F08A500813104
:100A80003021843120002008DD002108DE0022080A
:100A9000DF000030A0000030A1004030A2005D085F
:100AA000A3005E08A4005F08A5008D3132258431C3
:100AB00003187A2D00302000D7000030D8004030D5
:100AC000D9005D08DA005E08DB005F08DC008C31CD
:100AD0004E24843120005708DD005808DE005908F4
:100AE000DF006A08031D762D0130772D0030E0000D
:100AF0006008EA0000302000A0008030A1003F30F4
:100B0000A2005D08A3005E08A4005F08A5008D3167
:100B1000322584310318AD2D00302000B0000030A4
:100B2000B1004030B2005D08F0005E08F1005F08DF
:100B3000F2008B31BC23843170082000B3007108AF
:100B4000B4007208B5008231AF2284312000300831
:100B5000DD003108DE003208DF0020005D08A00063
:100B60005E08A1005F08A2005D08A3005E08A40063
:100B70005F08A50081313021843120002008E70082
:100B80002108E8002208E9006708BD006808BE00E7
:100B90006908BF000F30C0008830C1000330C200B8
:100BA0000030C3008E313126843120003D08E10041
:100BB0003E08E2003F08E3000430C2000030C300FA
:100BC0000030C0008830C1006708BD006808BE0062
:100BD0006908BF008E313126843120003D08CA00EB
:100BE0003E08CB003F08CC006108C7006208C8007F
:100BF0006308C90080318720843120004708E40061
:100C00004808E5004908E6006408A0006508A1005E
:100C10006608A2005D08A3005E08A4005F08A500A6
:100C200081313021843120002008DD002108DE00E0
:100C30002208DF006A08031908005D08F0005E085A
:100C4000F1005F08F2008B31BC2370082000DD004A
:100C50007108DE007208DF0008002100BF01C0013A
:100C60008D31AB2586317D082000A6007C08A500CB
:100C70008C31AC24863120002508DA002608DB0000
:100C80002708DC008D31AB2586317D082000A600C9
:100C90007C08A5008C31AC24863120002508DD00BD
:100CA0002608DE002708DF008D31AB2586317D0860
:100CB0002000A6007C08A5008C31AC2486312000E1
:100CC0002508E0002608E1002708E2005D08B000E2
:100CD0005E08B1005F08B2005A08B3005B08B400B8
:100CE0005C08B5008231AF22863120003008D70081
:100CF0003108D8003208D9006008B0006108B1009E
:100D00006208B2005708B3005808B4005908B5008B
:100D10008231AF22863120003008E3003108E40040
:100D20003208E5006308A0006408A1006508A2007D
:100D30000030A3008030A4003F30A5008D31322563
:100D400086310318AA2E00302000E3008030E40032
:100D50003F30E500C0302000A0007F30A1004430CB
:100D6000A2006308C7006408C8006508C9005A08E3
:100D7000CA005B08CB005C08CC008031872086313C
:100D800020004708A3004808A4004908A5008131B5
:100D900030218631200020082100B80020002108E1
:100DA0002100B900200022082100BA00C030200034
:100DB000A0007F30A1004430A2006308C70064088F
:100DC000C8006508C9005D08CA005E08CB005F085E
:100DD000CC0080318720863120004708A3004808D6
:100DE000A4004908A5008131302186312000200867
:100DF0002100AF00200021082100B00020002208BF
:100E00002100B100C0302000A0007F30A10044309C
:100E1000A2006308C7006408C8006508C90060082C
:100E2000CA006108CB006208CC008031872086317F
:100E300020004708A3004808A4004908A500813104
:100E400030218631200020082100A6002000210842
:100E50002100A700200022082100A8000030200067
:100E6000C7007A30C8004430C9002100380820008B
:100E7000B000210039082000B10021003A0820000C
:100E8000B20021003508F0003608F1003708F20002
:100E90008B31BC23863170082000B3007108B40088
:100EA0007208B5008231AF22863120003008CA00B6
:100EB0003108CB003208CC008031872086312000F9
:100EC00047082100B200200048082100B30020009C
:100ED00049082100B40000302000C7007A30C80063
:100EE0004430C90021002F082000B0002100300844
:100EF0002000B100210031082000B20021002C08A0
:100F0000F0002D08F1002E08F2008B31BC23863151
:100F100070082000B3007108B4007208B500823177
:100F2000AF22863120003008CA003108CB003208D9
:100F3000CC00803187208631200047082100A9009D
:100F4000200048082100AA00200049082100AB0029
:100F500000302000C7007A30C8004430C9002100AA
:100F600026082000B000210027082000B100210041
:100F700028082000B20021002308F0002408F10016
:100F80002508F2008B31BC23863170082000B300A5
:100F90007108B4007208B5008231AF22863120009A
:100FA0003008CA003108CB003208CC0080318720DD
:100FB000200047082100A000200048082100A100CF
:100FC000200049082100A200080021008B31AC2339
:100FD0008731D2008B31AD238731D3008B31AE23E3
:100FE0008731D4008B31AF238731D500A030840006
:100FF0000030850023308B31B62320008031042857
:10100000F4344A34483495349534C734C134DC342C
:101010004534DC346D34C334B33433344034343485
:10102000013448349D34B03445340034DA34423429
:06103000003480343F345F
:10174A0020001C15080016302100970008000134FB
:10175A000034003400347830210099009A0198014D
:10176A000800640080010131890BB72B003472082C
:10177A0071047004031908008030F20608000C3066
:10178A002500930091019201FC309E0508000C305F
:10179A0025009A0098019901F3309E050800700807
:1017AA002100D2007108D300D401D501080080308D
:1017BA002C00990098019701CF3025009E0508005A
:1017CA0020009C01FF309B009A0191108B31A523C8
:1017DA0008007808F0007908F100F2018E30FB0069
:1017EA007B08F300F4018E3191267008F800710825
:1017FA00F9007208FA0008008D31EE258C318B3120
:10180A00B0238C318B31A8238C318B31C4238C319A
:10181A008B31CC238C318B31DC238C318B31E5231A
:10182A000800F401F501701C1E2C7208F4077308F5
:10183A00F53D0130F235F30D890B1F2C0130F136DD
:10184A00F00C890B242C70087104031D182C7508E0
:10185A00F1007408F000080020006F082100CD0094
:10186A0020006E082100CC00CD36CC0CCD36CC0C35
:10187A004C082C00980020006E0803392100CC0087
:10188A000530CC35FF3E031D462C4C352C00970005
:10189A00080020005908580457040319562C8030B0
:1018AA00D9065A08B0005B08B1005C08B2005708B4
:1018BA00B3005808B4005908B5008231AF2220009D
:1018CA003008D7003108D8003208D90008002000B3
:1018DA006F082100CD0020006E082100CC00CD3613
:1018EA00CC0CCD36CC0C4C082500910020006E089B
:1018FA0003392100CC000430CC35890B812C25001A
:10190A001308CF3921004C04250093000800200059
:10191A006F082100CD0020006E082100CC00CD36D2
:10192A00CC0CCD36CC0C4C082500980020006E0853
:10193A0003392100CC000430CC35890BA12C2500B9
:10194A001A08CF3921004C0425009A00080020000B
:10195A00AA01A61FB72CA509A609A50A0319A60A52
:10196A00AA01AA0A2508F0002608F100F2018E3021
:10197A00A8002808F3002A08A9002908F4008E31D3
:10198A00912670082000A5007108A6007208A70019
:10199A0008000030FB000030FA000030F900003087
:1019AA00F800701CE02C7408F8077508F93D7608F1
:1019BA00FA3D7708FB3D0130F435F50DF60DF70DCC
:1019CA00890BE12C0130F336F20CF10CF00C890B87
:1019DA00E82C7308720471047004031DD62C7B086A
:1019EA00F3007A08F2007908F1007808F00008009C
:1019FA00720871047004031D092D7308860087019B
:101A0A000030C03FC13F080072087F39F400F50179
:101A1A00F435F50D7308860087017408C03F750810
:101A2A00C13F710D710D0139F400F501730886008B
:101A3A00870174088104413175088104730886009E
:101A4A008701823081074131FF30813D7F31720841
:101A5A0080393F38F200F11308002000A21F492DF7
:101A6A002009A6002109A7002209A800A60A03192D
:101A7A00A70A0319A80A00302607A0000030273D4C
:101A8A00A1008030283DA200A51F5F2D2309A600D2
:101A9A002409A7002509A800A60A0319A70A0319F9
:101AAA00A80A00302607A3000030273DA400803092
:101ABA00283DA5008030A2068030A506250822020E
:101ACA00031D080024082102031D08002308200220
:101ADA0008002000A7018E30A4002408A600A31F36
:101AEA00832DA009A109A209A309A00A0319A10A21
:101AFA000319A20A0319A30AA701A70AFF3023059B
:101B0A000319932D0130A336A20CA10CA00C890B4A
:101B1A00882D0130A4002408A607832D2008F00090
:101B2A002108F1002208F2002608A4002408F30084
:101B3A002708A5002508F4008E3191267008200098
:101B4A00A0007108A1007208A2000800210055082F
:101B5A00F3005408F2005308F1005208F000413033
:101B6A00F700C630F6004E30F5006D30F4008C31C7
:101B7A00CE248D3173082100D5007208D400710873
:101B8A00D3007008D2003930D2073030D33D00304C
:101B9A00D43D0030D53D52082000A0002100530852
:101BAA002000A100210054082000A20021005508AD
:101BBA002000A3001030A400A337A20CA10CA00C93
:101BCA00A40BE12DFF302005FC007F302105FD002C
:101BDA00080022008C018D018E01303021008C001A
:101BEA00F0308D00FF308E00CF3023008E00F030B1
:101BFA008D0037308C00F03024008D003F308C008F
:101C0A00FF308E002100951325008C018D018E0175
:101C1A0000308B1B0130F0008B1355303C008F00D5
:101C2A00AA308F000F103D001108E0390D389100DD
:101C3A001008E0390C3890001208E0390E3892008A
:101C4A0055303C008F00AA308F000F14701C2F2EC5
:101C5A008B1708008B13080020004308F100420884
:101C6A00F0000330F2000030F3008C3116248E317C
:101C7A0020004008700784004108713D8500003F3C
:101C8A00C400013FC500023FC600420843040319CD
:101C9A008A2EFF30C207FF30C33D4308F1004208D5
:101CAA00F0000330F2000030F3008C3116248E313C
:101CBA0020004008700784004108713D8500003FFC
:101CCA00B000013FB100023FB2004408A00045083D
:101CDA00A1004608A2003D08A3003E08A4003F0850
:101CEA00A500813130218E3120002008B30021085F
:101CFA00B4002208B5008231AF228E3120003008AC
:101D0A00C4003108C5003208492E4408BD00450800
:101D1A00BE004608BF00080073080319992E72080E
:101D2A0071047004031DAA2E0030F0000030F10087
:101D3A000030F20008000130F5007508F3070130A1
:101D4A00F236F10CF00C890BA52EFE307205031940
:101D5A00C32EA02E0130F5007508F3070130F007F5
:101D6A00003003180130F107003003180130F20780
:101D7A000130F236F10CF00C890BBE2EFF307205E1
:101D8A000319D02EAF2E0130F3020130F035F10DD8
:101D9A00F20D890BCB2EF11BD62E023073020318DB
:101DAA00C82E7318DE2EFF30F0057F30F105FF30A4
:101DBA00F2050310F30C7308F500F601F701103071
:101DCA00F535F60DF70D890BE52E7508F004760842
:101DDA00F1047708F204740803190800F2170800DE
:101DEA0020003D08F0003E08F1003F08F2004430B0
:101DFA00C0004008F3008C31FD248E312000C51F3D
:101E0A00272F3D08A0003E08A1003F08A20000308D
:101E1A00A3000030A4000030A5008D3132258E3198
:101E2A0003181F2F00302000BD008030BE00BF30D5
:101E3A00BF00080000302000BD000030BE000030A6
:101E4A00BF00080000304502153003194402031888
:101E5A0008003D08F0003E08F1003F08F2008F310B
:101E6A007A278E3173082000A3007208A200710835
:101E7A00A1007008A0008D316E258E312000200847
:101E8A00C1002108C2002208C3003D08A0003E0884
:101E9A00A1003F08A2004108A3004208A400430889
:101EAA00A5008D3132258E310318722F00302000A3
:101EBA00B0008030B100BF30B2004108B300420820
:101ECA00B4004308B5008231AF2220003008BD00BB
:101EDA003108BE003208BF00080020004108BD00DA
:101EEA004208BE004308BF0008007008F4007108E9
:101EFA00F5007208F6000310750D760DF7007708E5
:101F0A00FD007D08031D922F0030F3000030F2001F
:101F1A000030F1000030F00008007008F400710889
:101F2A00F5007208F6001730F636F50CF40C890B3A
:101F3A00992F7408F7007708F800F117FF30F005B9
:101F4A00FF30F1050030F2057008F9007108FA0057
:101F5A007208FB00FC018E30FD02FD1FD02F7D08A8
:101F6A00803A8F3E0318C22F0030F3000030F2008F
:101F7A000030F1000030F00008000130FC36FB0CA4
:101F8A00FA0CF90C890BC32F0130F4007408FD0711
:101F9A000319E92FC22F18307D02031CE62F0030E7
:101FAA00F3000030F2000030F1000030F0000800C9
:101FBA000130F935FA0DFB0DFC0D890BDE2F0130CE
:101FCA00FD027D08031DDD2F78080319F72FF90993
:101FDA00FA09FB09FC09F90A0319FA0A0319FB0AA7
:101FEA000319FC0A7C08F3007B08F2007A08F10066
:061FFA007908F000080068
:020000040001F9
:04000E00E419FF3FB3
:00000001FF
